{
  "contractName": "Customer",
  "abi": [
    {
      "inputs": [
        {
          "internalType": "string",
          "name": "_name",
          "type": "string"
        },
        {
          "internalType": "uint256",
          "name": "_price",
          "type": "uint256"
        },
        {
          "internalType": "string",
          "name": "_category",
          "type": "string"
        },
        {
          "internalType": "uint256",
          "name": "_amount",
          "type": "uint256"
        }
      ],
      "name": "createProduct",
      "outputs": [],
      "stateMutability": "nonpayable",
      "type": "function"
    },
    {
      "inputs": [
        {
          "internalType": "address",
          "name": "",
          "type": "address"
        }
      ],
      "name": "customer_map",
      "outputs": [
        {
          "internalType": "uint256",
          "name": "customer_id",
          "type": "uint256"
        },
        {
          "internalType": "string",
          "name": "customer_name",
          "type": "string"
        },
        {
          "internalType": "address",
          "name": "customer_add",
          "type": "address"
        },
        {
          "internalType": "uint256",
          "name": "product_feedback",
          "type": "uint256"
        },
        {
          "internalType": "uint256",
          "name": "delivery_feedback",
          "type": "uint256"
        },
        {
          "internalType": "address",
          "name": "farmer_address",
          "type": "address"
        },
        {
          "internalType": "string",
          "name": "email",
          "type": "string"
        },
        {
          "internalType": "string",
          "name": "location",
          "type": "string"
        },
        {
          "internalType": "string",
          "name": "phone",
          "type": "string"
        }
      ],
      "stateMutability": "view",
      "type": "function",
      "constant": true
    },
    {
      "inputs": [
        {
          "internalType": "address",
          "name": "",
          "type": "address"
        }
      ],
      "name": "distributor_map",
      "outputs": [
        {
          "internalType": "uint256",
          "name": "distributor_id",
          "type": "uint256"
        },
        {
          "internalType": "string",
          "name": "distributor_name",
          "type": "string"
        },
        {
          "internalType": "address",
          "name": "distributor_add",
          "type": "address"
        },
        {
          "internalType": "uint256",
          "name": "distributor_rating",
          "type": "uint256"
        },
        {
          "internalType": "string",
          "name": "distributor_phone",
          "type": "string"
        },
        {
          "internalType": "string",
          "name": "distributor_email",
          "type": "string"
        }
      ],
      "stateMutability": "view",
      "type": "function",
      "constant": true
    },
    {
      "inputs": [
        {
          "internalType": "address",
          "name": "",
          "type": "address"
        }
      ],
      "name": "farmer_map",
      "outputs": [
        {
          "internalType": "uint256",
          "name": "farmer_id",
          "type": "uint256"
        },
        {
          "internalType": "string",
          "name": "farmer_name",
          "type": "string"
        },
        {
          "internalType": "address",
          "name": "farmer_add",
          "type": "address"
        },
        {
          "internalType": "address",
          "name": "distributor_add",
          "type": "address"
        },
        {
          "internalType": "uint256",
          "name": "rating",
          "type": "uint256"
        },
        {
          "internalType": "string",
          "name": "farmer_location",
          "type": "string"
        },
        {
          "internalType": "string",
          "name": "farmer_phone",
          "type": "string"
        },
        {
          "internalType": "string",
          "name": "farmer_email",
          "type": "string"
        }
      ],
      "stateMutability": "view",
      "type": "function",
      "constant": true
    },
    {
      "inputs": [
        {
          "internalType": "uint256",
          "name": "",
          "type": "uint256"
        }
      ],
      "name": "order_map",
      "outputs": [
        {
          "internalType": "uint256",
          "name": "order_id",
          "type": "uint256"
        },
        {
          "internalType": "uint256",
          "name": "order_price",
          "type": "uint256"
        },
        {
          "internalType": "bool",
          "name": "status",
          "type": "bool"
        },
        {
          "internalType": "address",
          "name": "farmer_address",
          "type": "address"
        },
        {
          "internalType": "address",
          "name": "customer_address",
          "type": "address"
        }
      ],
      "stateMutability": "view",
      "type": "function",
      "constant": true
    },
    {
      "inputs": [
        {
          "internalType": "address",
          "name": "",
          "type": "address"
        }
      ],
      "name": "order_price_map",
      "outputs": [
        {
          "internalType": "uint256",
          "name": "",
          "type": "uint256"
        }
      ],
      "stateMutability": "view",
      "type": "function",
      "constant": true
    },
    {
      "inputs": [
        {
          "internalType": "uint256[]",
          "name": "_products",
          "type": "uint256[]"
        },
        {
          "internalType": "address",
          "name": "_customerAddress",
          "type": "address"
        },
        {
          "internalType": "address",
          "name": "_farmerAddress",
          "type": "address"
        }
      ],
      "name": "processOrder",
      "outputs": [],
      "stateMutability": "nonpayable",
      "type": "function"
    },
    {
      "inputs": [
        {
          "internalType": "uint256",
          "name": "",
          "type": "uint256"
        }
      ],
      "name": "product_map",
      "outputs": [
        {
          "internalType": "uint256",
          "name": "product_id",
          "type": "uint256"
        },
        {
          "internalType": "string",
          "name": "product_name",
          "type": "string"
        },
        {
          "internalType": "uint256",
          "name": "product_price",
          "type": "uint256"
        },
        {
          "internalType": "uint256",
          "name": "product_amount",
          "type": "uint256"
        },
        {
          "internalType": "string",
          "name": "product_category",
          "type": "string"
        },
        {
          "internalType": "bool",
          "name": "isAuthorised",
          "type": "bool"
        },
        {
          "internalType": "address",
          "name": "owner",
          "type": "address"
        }
      ],
      "stateMutability": "view",
      "type": "function",
      "constant": true
    },
    {
      "inputs": [
        {
          "internalType": "string",
          "name": "_name",
          "type": "string"
        },
        {
          "internalType": "string",
          "name": "_phone",
          "type": "string"
        },
        {
          "internalType": "string",
          "name": "_email",
          "type": "string"
        }
      ],
      "name": "setDetailsDistributor",
      "outputs": [],
      "stateMutability": "nonpayable",
      "type": "function"
    },
    {
      "inputs": [
        {
          "internalType": "address payable",
          "name": "_distributorAddress",
          "type": "address"
        }
      ],
      "name": "setDistributor",
      "outputs": [],
      "stateMutability": "nonpayable",
      "type": "function"
    },
    {
      "inputs": [
        {
          "internalType": "string",
          "name": "_name",
          "type": "string"
        },
        {
          "internalType": "string",
          "name": "_location",
          "type": "string"
        },
        {
          "internalType": "string",
          "name": "_phone",
          "type": "string"
        },
        {
          "internalType": "string",
          "name": "_email",
          "type": "string"
        }
      ],
      "name": "setFarmerDetails",
      "outputs": [],
      "stateMutability": "nonpayable",
      "type": "function"
    },
    {
      "inputs": [],
      "name": "viewProductsFarmer",
      "outputs": [
        {
          "components": [
            {
              "internalType": "uint256",
              "name": "product_id",
              "type": "uint256"
            },
            {
              "internalType": "string",
              "name": "product_name",
              "type": "string"
            },
            {
              "internalType": "uint256",
              "name": "product_price",
              "type": "uint256"
            },
            {
              "internalType": "uint256",
              "name": "product_amount",
              "type": "uint256"
            },
            {
              "internalType": "string",
              "name": "product_category",
              "type": "string"
            },
            {
              "internalType": "bool",
              "name": "isAuthorised",
              "type": "bool"
            },
            {
              "internalType": "address",
              "name": "owner",
              "type": "address"
            }
          ],
          "internalType": "struct Product.product[]",
          "name": "",
          "type": "tuple[]"
        }
      ],
      "stateMutability": "view",
      "type": "function",
      "constant": true
    },
    {
      "inputs": [
        {
          "internalType": "string",
          "name": "_name",
          "type": "string"
        },
        {
          "internalType": "string",
          "name": "_location",
          "type": "string"
        },
        {
          "internalType": "string",
          "name": "_phone",
          "type": "string"
        },
        {
          "internalType": "string",
          "name": "_email",
          "type": "string"
        }
      ],
      "name": "setCustomerDetails",
      "outputs": [],
      "stateMutability": "nonpayable",
      "type": "function"
    },
    {
      "inputs": [
        {
          "internalType": "uint256",
          "name": "_pid",
          "type": "uint256"
        },
        {
          "internalType": "address",
          "name": "_farmer",
          "type": "address"
        }
      ],
      "name": "addProduct",
      "outputs": [],
      "stateMutability": "nonpayable",
      "type": "function"
    },
    {
      "inputs": [],
      "name": "viewProductsCustomer",
      "outputs": [
        {
          "internalType": "uint256[]",
          "name": "",
          "type": "uint256[]"
        }
      ],
      "stateMutability": "view",
      "type": "function",
      "constant": true
    },
    {
      "inputs": [
        {
          "internalType": "address",
          "name": "_farmerAddress",
          "type": "address"
        }
      ],
      "name": "confirmOrder",
      "outputs": [],
      "stateMutability": "nonpayable",
      "type": "function"
    }
  ],
  "bytecode": "0x608060405234801561001057600080fd5b506000600560003373ffffffffffffffffffffffffffffffffffffffff1673ffffffffffffffffffffffffffffffffffffffff1681526020019081526020016000209050338160020160006101000a81548173ffffffffffffffffffffffffffffffffffffffff021916908373ffffffffffffffffffffffffffffffffffffffff16021790555050612a1e806100a76000396000f3fe608060405234801561001057600080fd5b50600436106101005760003560e01c806388c9a00c11610097578063c013435f11610066578063c013435f146102ba578063dd57cd46146102f0578063dec3a6011461030c578063ffdf34521461034157610100565b806388c9a00c146102035780638fdbffe7146102375780639176293b1461026e578063a06fc3461461029e57610100565b80636f4d0f6c116100d35780636f4d0f6c1461017557806375619ab5146101ad5780637ee9e2d8146101c957806382b90578146101e557610100565b806335e0e59e1461010557806338f1ef9e14610121578063469ee50c1461013d5780635fc412ec14610159575b600080fd5b61011f600480360381019061011a9190611d9a565b61035f565b005b61013b60048036038101906101369190611e71565b610480565b005b61015760048036038101906101529190611d9a565b610544565b005b610173600480360381019061016e9190612074565b610665565b005b61018f600480360381019061018a91906120e3565b61093e565b6040516101a4999897969594939291906121b6565b60405180910390f35b6101c760048036038101906101c2919061229d565b610bec565b005b6101e360048036038101906101de91906120e3565b610c76565b005b6101ed610d87565b6040516101fa9190612388565b60405180910390f35b61021d600480360381019061021891906123aa565b610e1f565b60405161022e9594939291906123f2565b60405180910390f35b610251600480360381019061024c91906120e3565b610ea2565b604051610265989796959493929190612445565b60405180910390f35b610288600480360381019061028391906120e3565b61114a565b60405161029591906124df565b60405180910390f35b6102b860048036038101906102b391906124fa565b611162565b005b6102d460048036038101906102cf91906123aa565b61138a565b6040516102e79796959493929190612599565b60405180910390f35b61030a60048036038101906103059190612616565b611509565b005b610326600480360381019061032191906120e3565b61162b565b60405161033896959493929190612656565b60405180910390f35b61034961181f565b6040516103569190612899565b60405180910390f35b6000600760003373ffffffffffffffffffffffffffffffffffffffff1673ffffffffffffffffffffffffffffffffffffffff1681526020019081526020016000209050338160020160006101000a81548173ffffffffffffffffffffffffffffffffffffffff021916908373ffffffffffffffffffffffffffffffffffffffff16021790555060008160000154036104155760066000815480929190610404906128ea565b919050555060065481600001819055505b8181600701908051906020019061042d929190611a71565b5082816006019080519060200190610446929190611a71565b508481600101908051906020019061045f929190611a71565b5083816005019080519060200190610478929190611a71565b505050505050565b6000600560003373ffffffffffffffffffffffffffffffffffffffff1673ffffffffffffffffffffffffffffffffffffffff168152602001908152602001600020905060008160000154036104f357600460008154809291906104e2906128ea565b919050555060045481600001819055505b8381600101908051906020019061050b929190611a71565b5082816004019080519060200190610524929190611a71565b508181600501908051906020019061053d929190611a71565b5050505050565b6000600b60003373ffffffffffffffffffffffffffffffffffffffff1673ffffffffffffffffffffffffffffffffffffffff1681526020019081526020016000209050338160020160006101000a81548173ffffffffffffffffffffffffffffffffffffffff021916908373ffffffffffffffffffffffffffffffffffffffff16021790555060008160000154036105fa57600860008154809291906105e9906128ea565b919050555060085481600001819055505b82816008019080519060200190610612929190611a71565b508481600101908051906020019061062b929190611a71565b5083816007019080519060200190610644929190611a71565b508181600601908051906020019061065d929190611a71565b505050505050565b60026000815480929190610678906128ea565b91905055506000600760008373ffffffffffffffffffffffffffffffffffffffff1673ffffffffffffffffffffffffffffffffffffffff1681526020019081526020016000209050600060036000600254815260200190815260200160002090506002548160000181905550838160050160006101000a81548173ffffffffffffffffffffffffffffffffffffffff021916908373ffffffffffffffffffffffffffffffffffffffff160217905550828160040160006101000a81548173ffffffffffffffffffffffffffffffffffffffff021916908373ffffffffffffffffffffffffffffffffffffffff16021790555084816003019080519060200190610782929190611af7565b506000600560008460030160009054906101000a900473ffffffffffffffffffffffffffffffffffffffff1673ffffffffffffffffffffffffffffffffffffffff1673ffffffffffffffffffffffffffffffffffffffff1681526020019081526020016000209050818160060160018160018154018082558091505003906000526020600020906006020160008201548160000155600182015481600101556002820160009054906101000a900460ff168160020160006101000a81548160ff0219169083151502179055506003820181600301908054610864929190611b44565b506004820160009054906101000a900473ffffffffffffffffffffffffffffffffffffffff168160040160006101000a81548173ffffffffffffffffffffffffffffffffffffffff021916908373ffffffffffffffffffffffffffffffffffffffff1602179055506005820160009054906101000a900473ffffffffffffffffffffffffffffffffffffffff168160050160006101000a81548173ffffffffffffffffffffffffffffffffffffffff021916908373ffffffffffffffffffffffffffffffffffffffff160217905550905050505050505050565b600b60205280600052604060002060009150905080600001549080600101805461096790612961565b80601f016020809104026020016040519081016040528092919081815260200182805461099390612961565b80156109e05780601f106109b5576101008083540402835291602001916109e0565b820191906000526020600020905b8154815290600101906020018083116109c357829003601f168201915b5050505050908060020160009054906101000a900473ffffffffffffffffffffffffffffffffffffffff16908060030154908060040154908060050160009054906101000a900473ffffffffffffffffffffffffffffffffffffffff1690806006018054610a4d90612961565b80601f0160208091040260200160405190810160405280929190818152602001828054610a7990612961565b8015610ac65780601f10610a9b57610100808354040283529160200191610ac6565b820191906000526020600020905b815481529060010190602001808311610aa957829003601f168201915b505050505090806007018054610adb90612961565b80601f0160208091040260200160405190810160405280929190818152602001828054610b0790612961565b8015610b545780601f10610b2957610100808354040283529160200191610b54565b820191906000526020600020905b815481529060010190602001808311610b3757829003601f168201915b505050505090806008018054610b6990612961565b80601f0160208091040260200160405190810160405280929190818152602001828054610b9590612961565b8015610be25780601f10610bb757610100808354040283529160200191610be2565b820191906000526020600020905b815481529060010190602001808311610bc557829003601f168201915b5050505050905089565b6000600760003373ffffffffffffffffffffffffffffffffffffffff1673ffffffffffffffffffffffffffffffffffffffff1681526020019081526020016000209050818160030160006101000a81548173ffffffffffffffffffffffffffffffffffffffff021916908373ffffffffffffffffffffffffffffffffffffffff1602179055505050565b6000600b60003373ffffffffffffffffffffffffffffffffffffffff1673ffffffffffffffffffffffffffffffffffffffff1681526020019081526020016000209050610d1681600901805480602002602001604051908101604052809291908181526020018280548015610d0a57602002820191906000526020600020905b815481526020019060010190808311610cf6575b50505050503384610665565b60006003600060025481526020019081526020016000209050600c60003373ffffffffffffffffffffffffffffffffffffffff1673ffffffffffffffffffffffffffffffffffffffff1681526020019081526020016000205481600101819055508060010154600981905550505050565b6060600b60003373ffffffffffffffffffffffffffffffffffffffff1673ffffffffffffffffffffffffffffffffffffffff168152602001908152602001600020600901805480602002602001604051908101604052809291908181526020018280548015610e1557602002820191906000526020600020905b815481526020019060010190808311610e01575b5050505050905090565b60036020528060005260406000206000915090508060000154908060010154908060020160009054906101000a900460ff16908060040160009054906101000a900473ffffffffffffffffffffffffffffffffffffffff16908060050160009054906101000a900473ffffffffffffffffffffffffffffffffffffffff16905085565b6007602052806000526040600020600091509050806000015490806001018054610ecb90612961565b80601f0160208091040260200160405190810160405280929190818152602001828054610ef790612961565b8015610f445780601f10610f1957610100808354040283529160200191610f44565b820191906000526020600020905b815481529060010190602001808311610f2757829003601f168201915b5050505050908060020160009054906101000a900473ffffffffffffffffffffffffffffffffffffffff16908060030160009054906101000a900473ffffffffffffffffffffffffffffffffffffffff1690806004015490806005018054610fab90612961565b80601f0160208091040260200160405190810160405280929190818152602001828054610fd790612961565b80156110245780601f10610ff957610100808354040283529160200191611024565b820191906000526020600020905b81548152906001019060200180831161100757829003601f168201915b50505050509080600601805461103990612961565b80601f016020809104026020016040519081016040528092919081815260200182805461106590612961565b80156110b25780601f10611087576101008083540402835291602001916110b2565b820191906000526020600020905b81548152906001019060200180831161109557829003601f168201915b5050505050908060070180546110c790612961565b80601f01602080910402602001604051908101604052809291908181526020018280546110f390612961565b80156111405780601f1061111557610100808354040283529160200191611140565b820191906000526020600020905b81548152906001019060200180831161112357829003601f168201915b5050505050905088565b600c6020528060005260406000206000915090505481565b600080815480929190611174906128ea565b91905055506000600160008054815260200190815260200160002090506000548160000181905550848160010190805190602001906111b4929190611a71565b50818160030181905550838160020181905550338160050160016101000a81548173ffffffffffffffffffffffffffffffffffffffff021916908373ffffffffffffffffffffffffffffffffffffffff16021790555082816004019080519060200190611222929190611a71565b50600760003373ffffffffffffffffffffffffffffffffffffffff1673ffffffffffffffffffffffffffffffffffffffff1681526020019081526020016000206008018190806001815401808255809150506001900390600052602060002090600602016000909190919091506000820154816000015560018201816001019080546112ad90612961565b6112b8929190611b96565b50600282015481600201556003820154816003015560048201816004019080546112e190612961565b6112ec929190611b96565b506005820160009054906101000a900460ff168160050160006101000a81548160ff0219169083151502179055506005820160019054906101000a900473ffffffffffffffffffffffffffffffffffffffff168160050160016101000a81548173ffffffffffffffffffffffffffffffffffffffff021916908373ffffffffffffffffffffffffffffffffffffffff16021790555050505050505050565b60016020528060005260406000206000915090508060000154908060010180546113b390612961565b80601f01602080910402602001604051908101604052809291908181526020018280546113df90612961565b801561142c5780601f106114015761010080835404028352916020019161142c565b820191906000526020600020905b81548152906001019060200180831161140f57829003601f168201915b50505050509080600201549080600301549080600401805461144d90612961565b80601f016020809104026020016040519081016040528092919081815260200182805461147990612961565b80156114c65780601f1061149b576101008083540402835291602001916114c6565b820191906000526020600020905b8154815290600101906020018083116114a957829003601f168201915b5050505050908060050160009054906101000a900460ff16908060050160019054906101000a900473ffffffffffffffffffffffffffffffffffffffff16905087565b6000600b60003373ffffffffffffffffffffffffffffffffffffffff1673ffffffffffffffffffffffffffffffffffffffff1681526020019081526020016000209050818160050160006101000a81548173ffffffffffffffffffffffffffffffffffffffff021916908373ffffffffffffffffffffffffffffffffffffffff160217905550806009018390806001815401808255809150506001900390600052602060002001600090919091909150556001600084815260200190815260200160002060020154600c60003373ffffffffffffffffffffffffffffffffffffffff1673ffffffffffffffffffffffffffffffffffffffff168152602001908152602001600020600082825461161f9190612992565b92505081905550505050565b600560205280600052604060002060009150905080600001549080600101805461165490612961565b80601f016020809104026020016040519081016040528092919081815260200182805461168090612961565b80156116cd5780601f106116a2576101008083540402835291602001916116cd565b820191906000526020600020905b8154815290600101906020018083116116b057829003601f168201915b5050505050908060020160009054906101000a900473ffffffffffffffffffffffffffffffffffffffff169080600301549080600401805461170e90612961565b80601f016020809104026020016040519081016040528092919081815260200182805461173a90612961565b80156117875780601f1061175c57610100808354040283529160200191611787565b820191906000526020600020905b81548152906001019060200180831161176a57829003601f168201915b50505050509080600501805461179c90612961565b80601f01602080910402602001604051908101604052809291908181526020018280546117c890612961565b80156118155780601f106117ea57610100808354040283529160200191611815565b820191906000526020600020905b8154815290600101906020018083116117f857829003601f168201915b5050505050905086565b6060600760003373ffffffffffffffffffffffffffffffffffffffff1673ffffffffffffffffffffffffffffffffffffffff168152602001908152602001600020600801805480602002602001604051908101604052809291908181526020016000905b82821015611a6857838290600052602060002090600602016040518060e0016040529081600082015481526020016001820180546118c090612961565b80601f01602080910402602001604051908101604052809291908181526020018280546118ec90612961565b80156119395780601f1061190e57610100808354040283529160200191611939565b820191906000526020600020905b81548152906001019060200180831161191c57829003601f168201915b50505050508152602001600282015481526020016003820154815260200160048201805461196690612961565b80601f016020809104026020016040519081016040528092919081815260200182805461199290612961565b80156119df5780601f106119b4576101008083540402835291602001916119df565b820191906000526020600020905b8154815290600101906020018083116119c257829003601f168201915b505050505081526020016005820160009054906101000a900460ff161515151581526020016005820160019054906101000a900473ffffffffffffffffffffffffffffffffffffffff1673ffffffffffffffffffffffffffffffffffffffff1673ffffffffffffffffffffffffffffffffffffffff168152505081526020019060010190611883565b50505050905090565b828054611a7d90612961565b90600052602060002090601f016020900481019282611a9f5760008555611ae6565b82601f10611ab857805160ff1916838001178555611ae6565b82800160010185558215611ae6579182015b82811115611ae5578251825591602001919060010190611aca565b5b509050611af39190611c23565b5090565b828054828255906000526020600020908101928215611b33579160200282015b82811115611b32578251825591602001919060010190611b17565b5b509050611b409190611c23565b5090565b828054828255906000526020600020908101928215611b855760005260206000209182015b82811115611b84578254825591600101919060010190611b69565b5b509050611b929190611c23565b5090565b828054611ba290612961565b90600052602060002090601f016020900481019282611bc45760008555611c12565b82601f10611bd55780548555611c12565b82800160010185558215611c1257600052602060002091601f016020900482015b82811115611c11578254825591600101919060010190611bf6565b5b509050611c1f9190611c23565b5090565b5b80821115611c3c576000816000905550600101611c24565b5090565b6000604051905090565b600080fd5b600080fd5b600080fd5b600080fd5b6000601f19601f8301169050919050565b7f4e487b7100000000000000000000000000000000000000000000000000000000600052604160045260246000fd5b611ca782611c5e565b810181811067ffffffffffffffff82111715611cc657611cc5611c6f565b5b80604052505050565b6000611cd9611c40565b9050611ce58282611c9e565b919050565b600067ffffffffffffffff821115611d0557611d04611c6f565b5b611d0e82611c5e565b9050602081019050919050565b82818337600083830152505050565b6000611d3d611d3884611cea565b611ccf565b905082815260208101848484011115611d5957611d58611c59565b5b611d64848285611d1b565b509392505050565b600082601f830112611d8157611d80611c54565b5b8135611d91848260208601611d2a565b91505092915050565b60008060008060808587031215611db457611db3611c4a565b5b600085013567ffffffffffffffff811115611dd257611dd1611c4f565b5b611dde87828801611d6c565b945050602085013567ffffffffffffffff811115611dff57611dfe611c4f565b5b611e0b87828801611d6c565b935050604085013567ffffffffffffffff811115611e2c57611e2b611c4f565b5b611e3887828801611d6c565b925050606085013567ffffffffffffffff811115611e5957611e58611c4f565b5b611e6587828801611d6c565b91505092959194509250565b600080600060608486031215611e8a57611e89611c4a565b5b600084013567ffffffffffffffff811115611ea857611ea7611c4f565b5b611eb486828701611d6c565b935050602084013567ffffffffffffffff811115611ed557611ed4611c4f565b5b611ee186828701611d6c565b925050604084013567ffffffffffffffff811115611f0257611f01611c4f565b5b611f0e86828701611d6c565b9150509250925092565b600067ffffffffffffffff821115611f3357611f32611c6f565b5b602082029050602081019050919050565b600080fd5b6000819050919050565b611f5c81611f49565b8114611f6757600080fd5b50565b600081359050611f7981611f53565b92915050565b6000611f92611f8d84611f18565b611ccf565b90508083825260208201905060208402830185811115611fb557611fb4611f44565b5b835b81811015611fde5780611fca8882611f6a565b845260208401935050602081019050611fb7565b5050509392505050565b600082601f830112611ffd57611ffc611c54565b5b813561200d848260208601611f7f565b91505092915050565b600073ffffffffffffffffffffffffffffffffffffffff82169050919050565b600061204182612016565b9050919050565b61205181612036565b811461205c57600080fd5b50565b60008135905061206e81612048565b92915050565b60008060006060848603121561208d5761208c611c4a565b5b600084013567ffffffffffffffff8111156120ab576120aa611c4f565b5b6120b786828701611fe8565b93505060206120c88682870161205f565b92505060406120d98682870161205f565b9150509250925092565b6000602082840312156120f9576120f8611c4a565b5b60006121078482850161205f565b91505092915050565b61211981611f49565b82525050565b600081519050919050565b600082825260208201905092915050565b60005b8381101561215957808201518184015260208101905061213e565b83811115612168576000848401525b50505050565b60006121798261211f565b612183818561212a565b935061219381856020860161213b565b61219c81611c5e565b840191505092915050565b6121b081612036565b82525050565b6000610120820190506121cc600083018c612110565b81810360208301526121de818b61216e565b90506121ed604083018a6121a7565b6121fa6060830189612110565b6122076080830188612110565b61221460a08301876121a7565b81810360c0830152612226818661216e565b905081810360e083015261223a818561216e565b905081810361010083015261224f818461216e565b90509a9950505050505050505050565b600061226a82612016565b9050919050565b61227a8161225f565b811461228557600080fd5b50565b60008135905061229781612271565b92915050565b6000602082840312156122b3576122b2611c4a565b5b60006122c184828501612288565b91505092915050565b600081519050919050565b600082825260208201905092915050565b6000819050602082019050919050565b6122ff81611f49565b82525050565b600061231183836122f6565b60208301905092915050565b6000602082019050919050565b6000612335826122ca565b61233f81856122d5565b935061234a836122e6565b8060005b8381101561237b5781516123628882612305565b975061236d8361231d565b92505060018101905061234e565b5085935050505092915050565b600060208201905081810360008301526123a2818461232a565b905092915050565b6000602082840312156123c0576123bf611c4a565b5b60006123ce84828501611f6a565b91505092915050565b60008115159050919050565b6123ec816123d7565b82525050565b600060a0820190506124076000830188612110565b6124146020830187612110565b61242160408301866123e3565b61242e60608301856121a7565b61243b60808301846121a7565b9695505050505050565b60006101008201905061245b600083018b612110565b818103602083015261246d818a61216e565b905061247c60408301896121a7565b61248960608301886121a7565b6124966080830187612110565b81810360a08301526124a8818661216e565b905081810360c08301526124bc818561216e565b905081810360e08301526124d0818461216e565b90509998505050505050505050565b60006020820190506124f46000830184612110565b92915050565b6000806000806080858703121561251457612513611c4a565b5b600085013567ffffffffffffffff81111561253257612531611c4f565b5b61253e87828801611d6c565b945050602061254f87828801611f6a565b935050604085013567ffffffffffffffff8111156125705761256f611c4f565b5b61257c87828801611d6c565b925050606061258d87828801611f6a565b91505092959194509250565b600060e0820190506125ae600083018a612110565b81810360208301526125c0818961216e565b90506125cf6040830188612110565b6125dc6060830187612110565b81810360808301526125ee818661216e565b90506125fd60a08301856123e3565b61260a60c08301846121a7565b98975050505050505050565b6000806040838503121561262d5761262c611c4a565b5b600061263b85828601611f6a565b925050602061264c8582860161205f565b9150509250929050565b600060c08201905061266b6000830189612110565b818103602083015261267d818861216e565b905061268c60408301876121a7565b6126996060830186612110565b81810360808301526126ab818561216e565b905081810360a08301526126bf818461216e565b9050979650505050505050565b600081519050919050565b600082825260208201905092915050565b6000819050602082019050919050565b600082825260208201905092915050565b60006127148261211f565b61271e81856126f8565b935061272e81856020860161213b565b61273781611c5e565b840191505092915050565b61274b816123d7565b82525050565b61275a81612036565b82525050565b600060e08301600083015161277860008601826122f6565b50602083015184820360208601526127908282612709565b91505060408301516127a560408601826122f6565b5060608301516127b860608601826122f6565b50608083015184820360808601526127d08282612709565b91505060a08301516127e560a0860182612742565b5060c08301516127f860c0860182612751565b508091505092915050565b600061280f8383612760565b905092915050565b6000602082019050919050565b600061282f826126cc565b61283981856126d7565b93508360208202850161284b856126e8565b8060005b8581101561288757848403895281516128688582612803565b945061287383612817565b925060208a0199505060018101905061284f565b50829750879550505050505092915050565b600060208201905081810360008301526128b38184612824565b905092915050565b7f4e487b7100000000000000000000000000000000000000000000000000000000600052601160045260246000fd5b60006128f582611f49565b91507fffffffffffffffffffffffffffffffffffffffffffffffffffffffffffffffff8203612927576129266128bb565b5b600182019050919050565b7f4e487b7100000000000000000000000000000000000000000000000000000000600052602260045260246000fd5b6000600282049050600182168061297957607f821691505b60208210810361298c5761298b612932565b5b50919050565b600061299d82611f49565b91506129a883611f49565b9250827fffffffffffffffffffffffffffffffffffffffffffffffffffffffffffffffff038211156129dd576129dc6128bb565b5b82820190509291505056fea2646970667358221220dfe13c73c1936b88349e6d3355ecf4668cbf7e9b85072de7504b007d61b6c6b264736f6c634300080d0033",
  "immutableReferences": {},
  "source": "// SPDX-License-Identifier: MIT\r\npragma solidity >=0.4.22 <0.9.0;\r\nimport \"./product.sol\";\r\nimport \"./farmer.sol\";\r\n//import \"./payment.sol\";\r\ncontract Customer is Farmer{\r\n    uint cnt;\r\n    uint amount;\r\n    struct customer{\r\n        uint customer_id;\r\n        string customer_name;\r\n        address customer_add;\r\n        uint product_feedback;\r\n        uint delivery_feedback;\r\n        address farmer_address;\r\n        string email;\r\n        string location;\r\n        string phone;\r\n        uint[] products;\r\n    }\r\n    \r\n    address[] customers;\r\n    //address [farmer_address][key_id] public \r\n    mapping(address=>customer) public customer_map;\r\n    //stores order price of basket of any customer\r\n    mapping (address=>uint) public order_price_map;\r\n\r\n    \r\n    // constructor(){\r\n    //     customer storage c= customer_map[msg.sender];\r\n    //     c.customer_add=msg.sender;\r\n    // }\r\n\r\n    function setCustomerDetails(string memory _name,string memory _location,string memory _phone,string memory _email) public{\r\n        customer storage c= customer_map[msg.sender];\r\n        c.customer_add=msg.sender;\r\n        if(c.customer_id==0)\r\n        {   \r\n            cnt++;\r\n            c.customer_id=cnt;\r\n        }\r\n        c.phone=_phone; \r\n        c.customer_name=_name;\r\n        c.location=_location;\r\n        c.email=_email;\r\n        // c.product_feedback=_product_feedback; to be set after delivery of the product\r\n        // c.delivery_feedback=_delivery_feedback;\r\n    }\r\n\r\n        // function placeOrder(address _to) public\r\n     function addProduct(uint _pid,address _farmer) public{\r\n            customer storage c=customer_map[msg.sender];\r\n            c.farmer_address=_farmer;\r\n            c.products.push(_pid);\r\n            order_price_map[msg.sender]+=product_map[_pid].product_price;\r\n    }\r\n\r\n    function viewProductsCustomer() public view returns (uint[] memory)\r\n    {\r\n\r\n        return customer_map[msg.sender].products;\r\n    }\r\n\r\n    function confirmOrder(address _farmerAddress) public\r\n    {\r\n        customer storage c=customer_map[msg.sender];\r\n        processOrder(c.products,msg.sender,_farmerAddress);\r\n        order storage o = order_map[order_count];\r\n        o.order_price = order_price_map[msg.sender]; \r\n        amount=o.order_price;\r\n    }\r\n    \r\n    // function confirmOrderReceived() public\r\n    // {\r\n    //     customer storage c=customer_map[msg.sender];\r\n    //     farmer storage f=farmer_map[c.farmer_address];\r\n    //     // payment_id++;\r\n    //     // payment storage p=payment_map[payment_id];\r\n    //     p.farmer_Paymentaddress=payable(c.farmer_address);\r\n    //     p.customer_Paymentaddress=payable(msg.sender);\r\n    //     p.delivery_Paymentaddress=payable(f.distributor_add);\r\n    // }\r\n    \r\n    // function initiatePayment(address _to,uint _amount) public\r\n    // {\r\n    //   //  PaymentByCustomer(msg.sender,_amount,_to);\r\n    // }\r\n}",
  "sourcePath": "C:\\Users\\shubh\\OneDrive\\Desktop\\Agriculture-Supply-Chain-Management\\ASCM\\contracts\\customer.sol",
  "compiler": {
    "name": "solc",
    "version": "0.8.13+commit.abaa5c0e.Emscripten.clang"
  },
  "schemaVersion": "3.4.7",
  "updatedAt": "2022-04-19T09:23:55.609Z",
  "networkType": "ethereum",
  "devdoc": {
    "kind": "dev",
    "methods": {},
    "version": 1
  },
  "userdoc": {
    "kind": "user",
    "methods": {},
    "version": 1
  }
}